:0400000035EF7DF06B
:10F9F600016E01C083FF1200026E84820250FBEC8E
:10FA06007CF08494849284821200026E8482025076
:10FA1600FBEC7CF08484849284821200437A6173C6
:10FA26003A2020202020202020202020004D4F4357
:10FA36003A2020202020202020202020570001507E
:10FA46000302F3CF05F0F4CF06F001500402F350A1
:10FA5600062602500302F350062605C001F006C032
:10FA660002F01200220EF66EFA0EF76E000EF86E17
:10FA760000EE3FF010EE22F00900F5CFEEFFE55064
:10FA8600E150FAE1000EF86E00011BEF7EF0000E69
:10FA9600056E58EF7DF005500324D96E000E042044
:10FAA600DA6EDF5008EC7DF0052A05500324D96E86
:10FAB600000E0420DA6EDF50D8A464EF7DF066EF06
:10FAC6007DF04EEF7DF01200000E046E000E036E08
:10FAD6007FEF7DF0000E056E00F000F000F000F004
:10FAE60000F0052AC70E05647BEF7DF07DEF7DF003
:10FAF6006FEF7DF0034A042A0150035C025004585C
:10FB0600D8A088EF7DF08AEF7DF06DEF7DF01200D2
:10FB160084928494000E026E140E016E67EC7DF0E2
:10FB26008482380EFFEC7CF0000E026E050E016E2C
:10FB360067EC7DF0380EFFEC7CF0000E026E010ED5
:10FB4600016E67EC7DF0380EFFEC7CF0080EFFECE2
:10FB56007CF00F0EFFEC7CF0010EFFEC7CF0380E13
:10FB6600FFEC7CF0800EFFEC7CF01200000E066EBF
:10FB760004BEC2EF7DF0C0EF7DF0C8EF7DF0036CF0
:10FB8600041ED8B0042A010E066E02BECFEF7DF029
:10FB9600CDEF7DF0D5EF7DF0016C021ED8B0022AC4
:10FBA600010E061A000E086E000E076E03500410B2
:10FBB600D8B4E0EF7DF0E2EF7DF00AEF7EF0010EC3
:10FBC600056EEAEF7DF0D89003360436052A04AEBA
:10FBD600EFEF7DF0F1EF7DF0E6EF7DF0D8900736A0
:10FBE60008360350015C04500258D8A0FDEF7DF0A2
:10FBF600FFEF7DF004EF7EF00350015E0450025AE1
:10FC06000780D89004320332052EF1EF7DF00650BE
:10FC1600D8B410EF7EF012EF7EF016EF7EF0076C90
:10FC2600081ED8B0082A07C001F008C002F012006A
:10FC3600010EC26E0B0EC16E010EC06EC30E926E29
:10FC46003F0E936E010E946E000E956E000E966E2C
:10FC56008BEC7DF0010EFFEC7CF0030E3E6E200E69
:10FC66003D6E000E3C6E000E3B6E000E3A6E000EB0
:10FC7600396E000E026EC80E016E67EC7DF081BA19
:10FC860047EF7EF049EF7EF08AEF7EF0200E3D18BA
:10FC960009E1030E3E18D8B453EF7EF055EF7EF01F
:10FCA60086EF7EF0580E3D1809E1020E3E18D8B4D4
:10FCB6005FEF7EF061EF7EF07CEF7EF05E0E3D182A
:10FCC60008E13E04D8B46AEF7EF06CEF7EF072EF86
:10FCD6007EF0030E306E200E2F6E76EF7EF0000E55
:10FCE600306EC80E2F6E2FC02DF030C02EF080EF74
:10FCF6007EF0010E2E6E5E0E2D6E2DC03DF02EC0D6
:10FD06003EF08AEF7EF0020E3E6E580E3D6E81B8D2
:10FD16008FEF7EF091EF7EF0A9EF7EF03C0E3B2652
:10FD2600000E3C223CBEA1EF7EF0110E3B5C0E0E97
:10FD36003C58D8A0A1EF7EF0A3EF7EF03CEF7EF01A
:10FD4600000E3C6E000E3B6E3CEF7EF081B6AEEFD1
:10FD56007EF0B0EF7EF0C4EF7EF00A0E3B26000E7A
:10FD66003C223CBEC0EF7EF0110E3B5C0E0E3C58B2
:10FD7600D8A0C0EF7EF0C2EF7EF03CEF7EF0A3EF9E
:10FD86007EF081B4C9EF7EF0CBEF7EF0DAEF7EF045
:10FD960039503A10D8A4D2EF7EF0D4EF7EF038EF87
:10FDA6007EF0000E3A6E010E396E3CEF7EF081B2A7
:10FDB600DFEF7EF0E1EF7EF0F4EF7EF039503A109F
:10FDC600D8A4E8EF7EF0EAEF7EF03CEF7EF0030E7B
:10FDD6003E6E200E3D6E000E3C6E000E3B6E3CEFFE
:10FDE6007EF039043A10D8A4FBEF7EF0FDEF7EF0EA
:10FDF60019EF7FF03CBE08EF7FF03C5008E13B0472
:10FE0600D8A008EF7FF00AEF7FF015EF7FF03B06F2
:10FE1600D8A03C06030E026E200E016E67EC7DF044
:10FE260019EF7FF0000E3A6E000E396E20EE50F09C
:10FE360010EE0BF0100EDBCFE3FFE806FCE23DC050
:10FE460001F03EC002F0000E046E640E036EB9ECC3
:10FE56007DF00150300F176E3DC001F03EC002F03C
:10FE6600000E046E0A0E036EB9EC7DF001C009F0B7
:10FE760002C00AF03DC001F03EC002F0000E046E62
:10FE8600640E036EB9EC7DF00150F60DF3500924B3
:10FE9600300F186E3DC001F03EC002F0000E046E39
:10FEA6000A0E036EB9EC7DF00150F60DF3503D24B9
:10FEB600300F196E3BC001F03CC002F0000E046E1C
:10FEC6003C0E036EB9EC7DF001C037F002C038F08D
:10FED60037C001F038C002F0FF0E046EC40E036E88
:10FEE60022EC7DF03B500124356E3C500220366EEC
:10FEF60020EE3FF010EE1CF0100EDBCFE3FFE8061D
:10FF0600FCE239503A10D8A48BEF7FF08DEF7FF0EA
:10FF160093EF7FF0000E326E7C0E316E97EF7FF01E
:10FF2600000E326E200E316E31C023F039503A1079
:10FF3600D8A4A0EF7FF0A2EF7FF0A8EF7FF0000E2D
:10FF4600346E7C0E336EACEF7FF0000E346E200EF6
:10FF5600336E33C024F037C001F038C002F0000E13
:10FF6600046E0A0E036EB9EC7DF00150300F276E59
:10FF760037C001F038C002F0000E046E0A0E036EA0
:10FF8600B9EC7DF00150F60DF3503724300F286E92
:10FF96003A0E296E35C001F036C002F0000E046E2E
:10FFA6000A0E036EB9EC7DF00150300F2A6E35C093
:10FFB60001F036C002F0000E046E0A0E036EB9ECB4
:10FFC6007DF00150F60DF3503524300F2B6E800E68
:10FFD600FFEC7CF00B0E036E000E046E4AEC7DF017
:10FFE600C00EFFEC7CF01C0E036E000E046E4AEC95
:0AFFF6007DF03CEF7EF000EF00F01C
:020000040020DA
:08000000FFFFFFFFFFFFFFFF00
:020000040030CA
:0E000000FF06181EFF8180FF0FC00FE00F40AB
:00000001FF
