:0400000082EF7DF01E
:10FAFC00016E01C083FF1200000EF86E000113EFBF
:10FB0C007EF0026E848202507EEC7DF084948492AE
:10FB1C0084821200026E848202507EEC7DF084841A
:10FB2C00849284821200000E046E000E036EB1EFFC
:10FB3C007DF0000E056E00F000F000F000F000F01B
:10FB4C00052AC70E0564ADEF7DF0AFEF7DF0A1EF98
:10FB5C007DF0034A042A0150035C02500458D8A0DB
:10FB6C00BAEF7DF0BCEF7DF09FEF7DF01200000E40
:10FB7C00076ED0EF7DF007500324056E000E0420B5
:10FB8C00066E05C0F6FF06C0F7FF0800F55090ECB6
:10FB9C007DF0072A07500324056E000E0420066E24
:10FBAC0005C0F6FF06C0F7FF0800F5500009D8A401
:10FBBC00E2EF7DF0E4EF7DF0C1EF7DF01200849276
:10FBCC008494000E026E140E016E99EC7DF084820A
:10FBDC00380E87EC7DF0000E026E050E016E99EC6E
:10FBEC007DF0380E87EC7DF0000E026E010E016E7A
:10FBFC0099EC7DF0380E87EC7DF0080E87EC7DF0EB
:10FC0C000F0E87EC7DF0010E87EC7DF0380E87EC43
:10FC1C007DF0800E87EC7DF01200010EC26E0B0E93
:10FC2C00C16E010EC06EC30E926E3F0E936E010E2E
:10FC3C00946E000E956E000E966EE5EC7DF0010E46
:10FC4C0087EC7DF0000E026EFA0E016E99EC7DF0E1
:10FC5C00010E87EC7DF0800E87EC7DF0980E036E24
:10FC6C00FF0E046EBDEC7DF0C00E87EC7DF0100E27
:10FC7C00036EFF0E046EBDEC7DF0000E026EFA0EEC
:10FC8C00016E99EC7DF0010E87EC7DF0800E87EC17
:10FC9C007DF0A90E036EFF0E046EBDEC7DF0C00E60
:10FCAC0087EC7DF0650E036EFF0E046EBDEC7DF0EF
:10FCBC00010E026EF40E016E99EC7DF0010E87ECD4
:10FCCC007DF0800E87EC7DF0DC0E036EFF0E046E73
:10FCDC00BDEC7DF0C00E87EC7DF0EE0E036EFE0EDB
:10FCEC00046EBDEC7DF0010E026EF40E016E99EC0B
:10FCFC007DF0010E87EC7DF0800E87EC7DF0210EFF
:10FD0C00036EFF0E046EBDEC7DF0C00E87EC7DF033
:10FD1C00760E036EFF0E046EBDEC7DF0010E026ECE
:10FD2C00F40E016E99EC7DF0010E87EC7DF0800EE7
:10FD3C0087EC7DF0320E036EFF0E046EBDEC7DF091
:10FD4C00C00E87EC7DF0DD0E036EFE0E046EBDEC76
:10FD5C007DF0010E026EF40E016E99EC7DF0010E39
:10FD6C0087EC7DF0800E87EC7DF0540E036EFF0E59
:10FD7C00046EBDEC7DF0C00E87EC7DF0990E036E29
:10FD8C00FE0E046EBDEC7DF0010E026EF40E016EE3
:10FD9C0099EC7DF0010E87EC7DF0800E87EC7DF008
:10FDAC00ED0E036EFF0E046EBDEC7DF0C00E87EC05
:10FDBC007DF0430E036EFF0E046EBDEC7DF0000E65
:10FDCC00026EFA0E016E99EC7DF0010E87EC7DF05F
:10FDDC00800E87EC7DF0CB0E036EFF0E046EBDEC37
:10FDEC007DF0C00E87EC7DF0BA0E036EFF0E046E34
:10FDFC00BDEC7DF0010E026EF40E016E99EC7DF0FF
:10FE0C00010E87EC7DF0800E87EC7DF0FF0E036E0B
:10FE1C00FE0E046EBDEC7DF0010E026EF40E016E52
:10FE2C0099EC7DF0010E87EC7DF0800E87EC7DF077
:10FE3C00870E036EFF0E046EBDEC7DF0C00E87ECDA
:10FE4C007DF0AA0E036EFE0E046EBDEC7DF0010E6D
:10FE5C00026EF40E016E99EC7DF0010E87EC7DF0D4
:10FE6C00800E87EC7DF0BB0E036EFE0E046EBDECB7
:10FE7C007DF0C00E87EC7DF0CC0E036EFE0E046E92
:10FE8C00BDEC7DF028EF7EF000EF00F0007C202030
:10FE9C0020202020646F2020202020207C007C202B
:10FEAC002020206C6F646F7720202020207C007C29
:10FEBC00202020772063656E6965202020207C003F
:10FECC007C202020206A65646E656A202020207CBE
:10FEDC00007C202020737A6B77616C7920202020A5
:10FEEC007C007C2020206920207570616C7920209A
:10FEFC00207C007C202054594C4B4F20445A4953B1
:10FF0C0020207C007C20206920206772616E69743F
:10FF1C006120207C007C20207A206E616D69206E2F
:10FF2C00696520207C007C20206E616A7769656B96
:10FF3C00737A6520207C007C2020206C6F647A69A9
:10FF4C0061726E6920207C007C20205A6170726185
:10FF5C00737A616D7920207C007C20736965206444
:10FF6C006F202073797461207C007C207374726123
:10FF7C00737A6E6520206369207C007C204477694D
:10FF8C006520202067616C6B69207C007C204C6FA5
:10FF9C0064792C2020676F667279207C007C207538
:10FFAC00206E6173206E616A65737A207C007C2AF6
:10FFBC00202A202A202829202A202A202A7C007C5A
:10FFCC002B2B4C4F444F2D47414C4B412B2B7C0042
:10FFDC007C536C6F6E63652C2020706C617A617C35
:10FFEC00007C6E6F776F20206F7477617274656A16
:03FFFC007C000086
:020000040020DA
:08000000FFFFFFFFFFFFFFFF00
:020000040030CA
:0E000000FF06181EFF8180FF0FC00FE00F40AB
:00000001FF
