:0400000069EF7DF037
:10FA5E00016E01C083FF1200026E848202502FECF1
:10FA6E007DF08494849284821200026E848202500D
:10FA7E002FEC7DF08484849284821200437A617329
:10FA8E003A2020202020202020202020004D4F43EF
:10FA9E003A20202020202020202020205700015016
:10FAAE000302F3CF05F0F4CF06F001500402F35039
:10FABE00062602500302F350062605C001F006C0CA
:10FACE0002F012008A0EF66EFA0EF76E000EF86E47
:10FADE0000EE3BF010EE22F00900F5CFEEFFE55000
:10FAEE00E150FAE1000EF86E00014FEF7EF0000ECD
:10FAFE00056E8CEF7DF005500324D96E000E0420A8
:10FB0E00DA6EDF503CEC7DF0052A05500324D96EE9
:10FB1E00000E0420DA6EDF50D8A498EF7DF09AEF35
:10FB2E007DF082EF7DF01200000E046E000E036E6B
:10FB3E00B3EF7DF0000E056E00F000F000F000F067
:10FB4E0000F0052AC70E0564AFEF7DF0B1EF7DF032
:10FB5E00A3EF7DF0034A042A0150035C02500458BF
:10FB6E00D8A0BCEF7DF0BEEF7DF0A1EF7DF01200CE
:10FB7E0084928494000E026E140E016E9BEC7DF046
:10FB8E008482380E33EC7DF0000E026E050E016E8F
:10FB9E009BEC7DF0380E33EC7DF0000E026E010E04
:10FBAE00016E9BEC7DF0380E33EC7DF0080E33ECDD
:10FBBE007DF00F0E33EC7DF0010E33EC7DF0380E40
:10FBCE0033EC7DF0800E33EC7DF01200000E066EED
:10FBDE0004BEF6EF7DF0F4EF7DF0FCEF7DF0036CEC
:10FBEE00041ED8B0042A010E066E02BE03EF7EF08C
:10FBFE0001EF7EF009EF7EF0016C021ED8B0022AF2
:10FC0E00010E061A000E086E000E076E0350041049
:10FC1E00D8B414EF7EF016EF7EF03EEF7EF0010EBC
:10FC2E00056E1EEF7EF0D89003360436052A04AE1C
:10FC3E0023EF7EF025EF7EF01AEF7EF0D890073698
:10FC4E0008360350015C04500258D8A031EF7EF004
:10FC5E0033EF7EF038EF7EF00350015E0450025A0F
:10FC6E000780D89004320332052E25EF7EF0065021
:10FC7E00D8B444EF7EF046EF7EF04AEF7EF0076C8C
:10FC8E00081ED8B0082A07C001F008C002F0120002
:10FC9E00010EC26E0B0EC16E010EC06EC30E926EC1
:10FCAE003F0E936E010E946E000E956E000E966EC4
:10FCBE00BFEC7DF0010E33EC7DF0030E3A6E200E9C
:10FCCE00396E000E386E000E376E000E346E000E5A
:10FCDE00336E030E026EE80E016E9BEC7DF081BA60
:10FCEE007BEF7EF07DEF7EF0BCEF7EF0C80E391814
:10FCFE003A10D8B485EF7EF087EF7EF0B8EF7EF045
:10FD0E005E0E391808E13A04D8B490EF7EF092EF07
:10FD1E007EF0AEEF7EF0580E391809E1020E3A1859
:10FD2E00D8B49CEF7EF09EEF7EF0A4EF7EF0000E36
:10FD3E00306EC80E2F6EA8EF7EF0030E306E200EC2
:10FD4E002F6E2FC02DF030C02EF0B2EF7EF0020ECF
:10FD5E002E6E580E2D6E2DC039F02EC03AF0BCEF1F
:10FD6E007EF0010E3A6E5E0E396E81B8C1EF7EF0F6
:10FD7E00C3EF7EF0DBEF7EF03C0E3726000E38220E
:10FD8E0038BED3EF7EF0110E375C0E0E3858D8A069
:10FD9E00D3EF7EF0D5EF7EF070EF7EF0000E386E72
:10FDAE00000E376E70EF7EF081B6E0EF7EF0E2EF80
:10FDBE007EF0F6EF7EF00A0E3726000E382238BEA1
:10FDCE00F2EF7EF0110E375C0E0E3858D8A0F2EF1F
:10FDDE007EF0F4EF7EF070EF7EF0D5EF7EF081B422
:10FDEE00FBEF7EF0FDEF7EF00AEF7FF03350341024
:10FDFE00D8B404EF7FF007EF7FF0010E08EF7FF02D
:10FE0E00000E336E346A81B20FEF7FF011EF7FF088
:10FE1E0024EF7FF033503410D8A418EF7FF01AEF90
:10FE2E007FF070EF7EF0030E3A6E200E396E000EEC
:10FE3E00386E000E376E70EF7EF033043410D8A497
:10FE4E002BEF7FF02DEF7FF043EF7FF038BE38EFD2
:10FE5E007FF0385008E13704D8A038EF7FF03AEF42
:10FE6E007FF03FEF7FF03706D8A0380643EF7FF0E4
:10FE7E00000E346E000E336E20EE4CF010EE0BF0D2
:10FE8E00100EDBCFE3FFE806FCE239C001F03AC00A
:10FE9E0002F0000E046E640E036EEDEC7DF0015068
:10FEAE00300F176E39C001F03AC002F0000E046E2A
:10FEBE000A0E036EEDEC7DF001C009F002C00AF0EF
:10FECE0039C001F03AC002F0000E046E640E036EEB
:10FEDE00EDEC7DF00150F60DF3500924300F186E45
:10FEEE0039C001F03AC002F0000E046E0A0E036E25
:10FEFE00EDEC7DF00150F60DF3503924300F196EF4
:10FF0E0037C001F038C002F0000E046E3C0E036ED6
:10FF1E00EDEC7DF001C035F002C036F035C001F0D9
:10FF2E0036C002F0FF0E046EC40E036E56EC7DF06A
:10FF3E0037500124316E38500220326E20EE3BF0E5
:10FF4E0010EE1CF0100EDBCFE3FFE806FCE235C02E
:10FF5E0001F036C002F0000E046E0A0E036EEDECD8
:10FF6E007DF00150300F276E35C001F036C002F023
:10FF7E00000E046E0A0E036EEDEC7DF00150F60DD0
:10FF8E00F3503524300F286E3A0E296E31C001F031
:10FF9E0032C002F0000E046E0A0E036EEDEC7DF020
:10FFAE000150300F2A6E31C001F032C002F0000E47
:10FFBE00046E0A0E036EEDEC7DF00150F60DF3505B
:10FFCE003124300F2B6E800E33EC7DF00B0E036E52
:10FFDE00000E046E7EEC7DF0C00E33EC7DF01C0E38
:10FFEE00036E000E046E7EEC7DF070EF7EF000EF7F
:02FFFE0000F011
:020000040020DA
:08000000FFFFFFFFFFFFFFFF00
:020000040030CA
:0E000000FF06181EFF8180FF0FC00FE00F40AB
:00000001FF
