:020000040000fa
:080000000002040000000000f2
:020000040000fa
:100400000f8520000e7f22000e01880000000000f2
:100410000c000700405820000100200011000700d8
:10042000000020000000e000020032000000020096
:100430000000000054040200000000000040da0048
:100440000000fe004440a900800020000000e00001
:100450000300320000002000a00188004440a800f2
:100460000000060091018800800078000000eb0089
:1004700015003700e280400032a0b4009101ba00bc
:10048000e280400032a0b4009102ba00e280400055
:1004900032a0b4000002eb00472bde00f507b200eb
:1004a000602ce10004003a000059eb008301e900f0
:1004b000fdff3e00040037006128e100010032002a
:1004c0000082eb00040007001101ba000200e00006
:1004d000e8ff3a00000006003159ba008301e90044
:1004e0000c0032002159ba008301e90008003200f3
:1004f0000400e00003003a00e280400032a0b400b3
:10050000f5ff370011d9ba008301e900faff3a007c
:100510008100e800e180400032a0b4000000060045
:080520000040da000000fe00bb
:020000040000fa
:020000040002f8
:04aff8009efa0000bd
:020000040000fa
:020000040002f8
:04affc007f3f000093
:020000040000fa
:1000080090020000900200009002000090020000a0
:100018009002000090020000900200009002000090
:100028009002000090020000900200009002000080
:100038009002000090020000900200009002000070
:020000040000fa
:020000040000fa
:10052800fefc0000f8f00000e0c0000080000000c1
:020000040000fa
:100538000200fa00004f78001e4078000040e800f2
:10054800004f78001e80fb000080fa0000000600c3
:100558000200fa00004f78001e4078000040e900d1
:10056800004f78001e80fb000080fa0000000600a3
:100578000400fa00004f7800110798001e00900050
:100588000080d100804078001e00900000c0680004
:10059800004f78001e80fb000080fa000000060073
:1005a8000400fa00004f7800110798001e00900020
:1005b800a2002000110009000200d8004400dd005c
:1005c800804078001e009000a2002000811f780063
:1005d800110009000200d80000017800010078002d
:1005e800cf00780000c04000004f78001e80fb005c
:1005f8000080fa00000006001000fa00204f980062
:100608006107980070002000100798000000eb00b8
:10061800000f78001e009000804078001e009000b7
:1006280000004000004178001e0090004200dd00fc
:10063800804178001e0090004300dd0000427800f1
:100648001e0090004400dd00804278001e009000eb
:100658004500dd0000437800640047000148780049
:100668006400470012409800640047002340980047
:1006780064004700344098006400470045409800f3
:100688006400470056409800200037009e0078001c
:100698006400470000804000904078002e48900099
:1006a80080cf500008003a006e0090000000e00083
:1006b80005003a002e489000004040000080fb00f2
:1006c80070079800170037009e0078006400470004
:1006d80000804000904078002e48900080cf500065
:1006e80009003a006e009000e10f500006003a0041
:1006f8002e4890000080fb000000d1000080fb0025
:1007080070079800070037001e0fe800500020000f
:100718009e0f1000ddff34001e0090000080fb00db
:10072800700798007e0090000080fa000000060024
:100738000e00fa00204f98000040eb001047980088
:100748000e80e80041292800060009003158780089
:100758007000b1002d0037002e489000e14f400096
:1007680003003a0010002000600798002e003700b0
:100778001e4090008080fb000e80e8000080400052
:10078800904078002e48900080cf50001c003e001a
:100798001e4090008080fb000e80e8000080400032
:1007a800904078002e4890000080fb000181fb00fb
:1007b800110009000280d8008000fd00004f780079
:1007c8001e04e00005003a002e4890000004a00036
:1007d8000080fb0060079800130037002e48900047
:1007e8001e405000804078001e80fb000000400042
:1007f80000c070000080fb00600798000a00370006
:100808001e4090000040e800104798001e409000ed
:10081800e64f5000d0ff36002e48900000404000c0
:100828000080fb00600798006e0090000080fa00ce
:10083800000006000400fa00204798002e409000af
:100848000080fb000000d100804078002e4090001e
:1008580080c068002e4090000080fb004400de004d
:1008680080c068002e4090000080fb004500de003c
:1008780000c06800614f60002e4090000080fb00bf
:100888000000d100804078001e80fb004500dd009c
:1008980000c070000080fb000080fa000000060025
:1008a8000a00fa000040eb004047980010002000c2
:1008b800100798000000eb00000f78000000eb0024
:1008c8001016880000f02f00001688000080eb004a
:1008d8009016880000003700000000004e4090008d
:1008e8000080fb00101688000099250021002000d8
:1008f8003007980041079800070037000000000003
:100908003e009000ce00900061005000e08058004a
:1009180030079800410798003e009000ce009000f4
:10092800e00f5000e08f5800f4ff3a00d5c2bf0036
:100938000042b2000004e00004003a001e009000eb
:100948000000e800100798000f003700d4c2bf006d
:100958000044b2000004e00004003a001e009000c9
:100968000000e9001007980007003700d4c2bf0054
:1009780001c8b300014060000004e00002003a0032
:100988000040eb00404798001e009000ea0f50001e
:1009980002003a0010002000100798001e00900086
:1009a8000000e00002003a009000200010079800c4
:1009b8001e009000e10f500003003a004e409000e6
:1009c800dbfe0700404798001e009000e20f500031
:1009d80003003a004e409000ddfe070040479800b3
:1009e8001e009000e30f500005003a009e007800ba
:1009f8004e409000defe0700404798001e0fe800ba
:100a08001e009000e40f500009003a009e00780094
:100a18004e409000d6fe0700404798001e0fe900a0
:100a28001e00e00002003d00f00f2000000f7800db
:100a38001e009000e50f500005003a009e00780067
:100a48004e409000d6fe0700404798001e0fe80071
:100a58001e009000e60f500009003a009e00780042
:100a68004e409000cefe0700404798001e0fe90058
:100a78001e00e00002003d0030062000000f780054
:100a88001e009000e70f500010003a009e0078000a
:100a98004e409000d8fe070040479800ce40900096
:100aa80000ceb30080cf500003003a0010002000b1
:100ab800000f7800050037004e409000e74f5000c7
:100ac80002003a000000eb00000f78001e009000c2
:100ad800e80f500003003a004e40900014ff070052
:100ae800404798001e009000e90f50007aff3a0036
:100af8004e4090004fff07004047980076ff3700b0
:020000040000fa
:040b080000000000e9
:00000001FF
