:020000040000fa
:080000000002040000000000f2
:020000040000fa
:100400000f8520000e7f22000e01880000000000f2
:100410000c000700403820000100200011000700f8
:10042000000020000000e000020032000000020096
:1004300000000000ca020200000000000040da00d4
:100440000000fe004440a900000020000000e00081
:100450000300320000002000a00188004440a800f2
:100460000000060091018800800078000000eb0089
:1004700015003700e280400032a0b4009101ba00bc
:10048000e280400032a0b4009102ba00e280400055
:1004900032a0b4000002eb00472bde00f507b200eb
:1004a000602ce10004003a000059eb008301e900f0
:1004b000fdff3e00040037006128e100010032002a
:1004c0000082eb00040007001101ba000200e00006
:1004d000e8ff3a00000006003159ba008301e90044
:1004e0000c0032002159ba008301e90008003200f3
:1004f0000400e00003003a00e280400032a0b400b3
:10050000f5ff370011d9ba008301e900faff3a007c
:100510008100e800e180400032a0b4000000060045
:080520000040da000000fe00bb
:020000040000fa
:020000040002f8
:04aff8009efa0000bd
:020000040000fa
:020000040002f8
:04affc007f3f000093
:020000040000fa
:1000080090020000900200009002000090020000a0
:100018009002000090020000900200009002000090
:100028009002000090020000900200009002000080
:100038009002000090020000900200009002000070
:020000040000fa
:020000040000fa
:100528000200fa00000f78001e00780060198800a9
:10053800000e2000001988000000eb0080198800d8
:100548000000eb001019880020f021002019880015
:1005580021e3a8000080fa00000006000200fa006b
:10056800000f78001e007800401988002023a8009a
:1005780020c3bf00614060000004e000fcff3200bf
:10058800001880000080fa00000006001000fa0041
:1005980000f02f00001688000080eb0090168800fd
:1005a8000040eb00204f9800a0052000300798007d
:1005b8000000eb00200798000040eb00204798005f
:1005c8000000eb00000f78000000eb001016880018
:1005d800f0fc2f00d2ff070010c0b300204f980096
:1005e800000037002e4890000080fb00101688009d
:1005f8003e0090006103b800860078004013200098
:100608000009b8006030b900030278000002420017
:100618004013200000b8b9000002420084017800ad
:100628006207980073079800070037000000000071
:100638006e009000fe00900061005000e0805800bd
:1006480060079800710798006e009000fe00900007
:10065800e00f5000e08f5800f4ff3a0040002000ff
:10066800beff0700400798001e00e00019003a008e
:10067800ce009000a00f2000808f500011003400a1
:10068800ae0090003e0090000080400020079800d7
:10069800ae40900010c0b3000140500020479800c1
:1006a8002e409000204f9800ae00900070bb2000b4
:1006b800808f50000700360000c0eb00204f9800e4
:1006c800040037000040eb00204f98000000eb00ca
:1006d80020079800d4c2bf000044b2000004e00024
:1006e800c0ff3a00100020001e0f50000040eb0031
:1006f800204f98000000eb0020079800b9ff370052
:020000040000fa
:0407080000000000ed
:00000001FF
